:1000000001308A002E290000CD2043244927C52F26
:10001000D422532A45295F2B311730100D050000DB
:10002000C12AD427DF24CE29D022432AC927CE06CD
:100030000A00532A4F28DF24CE29D022432AC92779
:10004000CE060A000B08B5008B13831603178C1716
:100050000C140000000083120313B51B8B17031749
:100060000C087F39031978280313B50003170D080E
:100070000313B60003170F080313B70035080C1E4F
:100080003F289900360803178D000313370803171C
:100090008F0003130B08B8008B13831603178C17FC
:1000A0000C140000000083120313B81B8B170317F6
:1000B0000C0D0E0D7F39031978280313B5000317B3
:1000C0000D080313B60003170F080313B700350814
:1000D0000C1E68289900360803178D000313370893
:1000E00003178F008D0A03198F0A031322280317A1
:1000F00003130800353084008313000803198D288A
:100100000630F800F701F70B8328F80B82287B30C4
:10011000F700F70B8928800B8028080088108316C9
:10012000881083122E142E08831687008312071C52
:10013000AC288815831688113130F700F70B9E28FC
:10014000A12883128811831688113130F700F70B2C
:10015000A728AA2891288312A630F700F70BAE280B
:100160000000080008118316081183122E152E08AE
:10017000831687008312071DD028081683160812DD
:100180003130F700F70BC228C528831208128316F6
:1001900008123130F700F70BCB28CE28B528831290
:1001A000A630F700F70BD22800000800B801B7010D
:1001B00038083602031CF828031DE22835083702E8
:1001C0000318F8288815831688113130F700F70BCB
:1001D000E728EA2883128811831688113130F70046
:1001E000F70BF028F3288312B70A0319B80AD828A6
:1001F000881583168811A630F700F70BFD2800003C
:1002000083120800B801B70138083602031C2429FC
:10021000031D0E29350837020318242908168316F2
:1002200008123130F700F70B132916298312081230
:10023000831608123130F700F70B1C291F2983128F
:10024000B70A0319B80A0429081683160812A6303B
:10025000F700F70B292900008312080003081F3953
:1002600083008316031787150830031399000230A3
:100270009A00A6309800903083129800FF30AE00AC
:10028000831603170908C039890003131F129F1230
:1002900000300317880083128701880189018313C6
:1002A00000300313AE0083168701FF3083128700EE
:1002B00000308316880087008312AE0004300317D5
:1002C0008D0000308F00031322206430B5007A20A7
:1002D0000130FA008830AA007A08AB000230FA0038
:1002E0000530AC007A08AD000B138B138B1B7529FE
:1002F00008108316081083128E20B2208C1E7E29CF
:100300001A08613C031D7E2962300C1E8529990064
:100310008C1E88291A08A0008C1E8C291A08A1009E
:100320008C1E90291A08A2008B102008803C031D07
:10033000A429103003178D0000308F0003132220F2
:100340002D088A002C0882002008B2002108B00085
:100350002208AF0032080339B40032086039F700D0
:10036000770EB100B10C0730B10532081039F70033
:10037000F70E0F30F7053310771833140810831673
:100380000810831231080319CC29013A0319E9290D
:10039000033A0319F729042A3408013A0319D72923
:1003A000033A0319DD29013A0319E329E9298E20CB
:1003B00066300C1ED9299900E929B22066300C1E3E
:1003C000DF299900E9298E20B22066300C1EE6292B
:1003D00099003318ED298810EE29881483168810A7
:1003E00083123008B6002F08B500D620042A33182F
:1003F000FB290811FC2908158316081183123008FF
:10040000B6002F08B500022188298C1E052A1A087B
:10041000A0008C1E092A1A08A1008C1E0D2A1A0899
:10042000A2008B10A008031D1D2A193003178D0090
:1004300000308F000313222088292008B2002108F1
:10044000B0002208AF0032086039F700770EB10023
:10045000B10C0730B10532081039F700F70E0F3034
:10046000F705331077183314081083160810831219
:1004700031080319422A013A0319662A033A03197B
:10048000742A812AB208031D472A0030482A013005
:10049000B2003208013A0319542A033A03195A2ABE
:1004A000013A0319602A662A8E2066300C1E562AED
:1004B0009900662AB22066300C1E5C2A9900662AD2
:1004C0008E20B22066300C1E632A990033186A2AE7
:1004D00088106B2A88148316881083123008B6009F
:1004E0002F08B500D620812A3318782A0811792AD6
:1004F00008158316081183123008B6002F08B500BE
:100500000221FA30B5007A2066300C1E852A990047
:04051000052A630055
:04400E00E22CFF3F62
:00000001FF
;PIC16F887
;CRC=549A  CREATED="30-Dec-17 14:05"
